:020000040800F2
:1000000038080020A1010008EF2000081B1F00088D
:10001000ED20000815080008AB28000800000000CB
:10002000000000000000000000000000B7210008F0
:10003000C908000800000000B5210008B921000827
:10004000BB010008BB010008BB010008BB010008A0
:10005000BB010008BB010008BB010008BB01000890
:10006000BB010008BB010008BB010008BB01000880
:10007000BB01000819080008BB010008BB0100080B
:10008000BB010008BB010008BB010008BB01000860
:10009000BB010008BB010008BB010008BB01000850
:1000A000BB0100086D220008BB010008BB0100086D
:1000B000BB010008BB010008BB010008BB01000830
:1000C000BB010008BB010008BB010008BB01000820
:1000D000BB010008BB010008BB010008BB01000810
:1000E000BB010008BB010008BB010008BB01000800
:1000F000BB010008BB010008BB010008BB010008F0
:10010000BB010008BB010008BB010008BB010008DF
:100110004D250008BB010008BB010008BB01000819
:10012000BB010008BB010008BB010008BB010008BF
:10013000BB010008BB010008BB010008BB010008AF
:10014000BB010008BB010008BB010008BB0100089F
:10015000BB010008BB010008BB010008BB0100088F
:10016000BB010008BB010008BB010008BB0100087F
:10017000BB010008BB010008BB0100080000000033
:10018000BB010008BB010008DFF810D000F030FB15
:100190000048004781320008AFF300803808002093
:1001A0000648804706480047FEE7FEE7FEE7FEE711
:1001B000FEE7FEE7FEE7FEE7FEE7FEE75122000866
:1001C000890100082DE9F05F0546002092469B4614
:1001D00088460646814640241BE02846414647465D
:1001E000224600F01FFA53465A46C01A914110D3D6
:1001F00011461846224600F006FA2D1A67EB010850
:100200004F4622460120002100F0FDF917EB0009BE
:100210004E41201EA4F10104DFDC484631462A4647
:100220004346BDE8F09FD2B201E000F8012B491E21
:10023000FBD270470022F6E710B513460A46044683
:100240001946FFF7F0FF204610BD2DE9FE4F80460E
:1002500081EA0300C00F0C46009021F0004123F01A
:100260000045B8EB0200A94105D240462146904620
:100270001C460B46024623F00040104347D0270D92
:10028000C7F30A00C3F30A510290401A01904028B4
:100290006BDAC3F3130040F4801B0098924620B140
:1002A0000023D2EB030A63EB0B0B01985946C0F114
:1002B0004002504600F0A7F906460D465046594602
:1002C000019A00F0BFF910EB08006141002487EAB1
:1002D000115284EAE7731A4340D0009A62B3019A3C
:1002E000012A4FEA075215DC001B61EB02014FF0B7
:1002F000004202EA0752CDE90042001C41F580119C
:1003000032462B4600F0F6F903B0BDE8F08F4046C8
:100310002146F9E7001B61EB0201001C41F5801347
:1003200000185B412018A2F5001747EB030140EAD3
:10033000D570B6196D4111E06D084FEA360645EAF1
:10034000C0754FEA0752001B61EB0201001C41F52A
:10035000801149084FEA30000019514132462B46BE
:1003600003B0BDE8F04F00F0B6B90098012240009C
:100370000023D0EB020263EBE073009821464FEAC2
:10038000E074B8EB000061EB0401E9E783F000439F
:100390005BE781F0004158E72DE9FE4F81EA030455
:1003A00004F0004421F0004100944FF0000B23F0D2
:1003B000004350EA01045ED052EA03045BD0C3F369
:1003C0000A54C1F30A552C44A4F2F3340194A0FB5F
:1003D0000254C1F3130141F48011C3F3130343F436
:1003E000801301FB024400FB034E840A970A44EA8F
:1003F000815447EA8357A4FB076802958D0A05FBE1
:1004000007854FEA932C04FB0C542705029D4FEA05
:10041000065847EA1637B5EB08056EEB070C870E52
:10042000920E47EA811742EA8312A7FB0201B6EB5C
:100430000B0164EB00042B0D43EA0C335E1844EB14
:100440001C50DA465146E7FB0201C5F313044FEA9C
:100450000B3343EA14534FEA0432019C43EA060388
:10046000A4F10C040294009CCDE900B400F042F920
:1004700003B0BDE8F08F00200146F9E72DE9F04D0B
:1004800081EA030404F0004B21F0004514464FF0CC
:10049000000A23F0004150EA050220D054EA01028C
:1004A0001DD0C5F30A570246C5F31303C1F3130069
:1004B000C1F30A5640F4801543F48013A7EB0608F5
:1004C000101BD64608F2FD3873EB050002D308F185
:1004D000010801E092185B41B8F1000F03DA002037
:1004E0000146BDE8F08D00204FF480110646844699
:1004F0000EE0171B73EB050705D3121B63EB050317
:1005000006434CEA010C49084FEA300092185B415F
:1005100050EA0107EDD152EA030012D082EA04004A
:1005200083EA0501084305D0101BAB4106D2012226
:10053000002306E000224FF0004302E06FF00102CA
:1005400053101AEB06004CEB085110EB0A0041EB7C
:100550000B01BDE8F04D00F0BEB80EB5C10F80EA4A
:10056000E0700844CA07002140F233438DE80E00D2
:100570000A460B4600F0BEF803B000BD00F0004292
:1005800030F000400AD0C10D01F56071C0F31600D3
:1005900042EA0151C208400711437047002001465A
:1005A000704701F0004330B421F0004150EA0102ED
:1005B00006D00A0DA2F56072C1F31301002A02DC15
:1005C00030BC00207047440F44EAC104C100E01869
:1005D00030BC00EBC25000F047B830B50B460146C6
:1005E00000202022012409E021FA02F59D4205D3D2
:1005F00003FA02F5491B04FA02F52844151EA2F17C
:100600000102F1DC30BD202A04DB203A00FA02F1BD
:10061000002070479140C2F1200320FA03F31943F0
:1006200090407047202A04DB203A21FA02F0002192
:10063000704721FA02F3D040C2F1200291400843F2
:1006400019467047202A06DBCB17203A41FA02F000
:1006500043EAE07306E041FA02F3D040C2F120021F
:1006600091400843194670470029A8BF7047401CB5
:10067000490008BF20F00100704710B4B0FA80FCB8
:1006800000FA0CF050EA010404BF10BC704749B1F5
:10069000CCF1200421FA04F411FA0CF118BF012165
:1006A00021430843A3EB0C01CB1D4FEA00614FEA45
:1006B000102042BF002010BC704700EBC350104414
:1006C0000029A4BF10BC7047401C490008BF20F09F
:1006D000010010BC704710B5141E73F1000408DA55
:1006E000401C41F1000192185B411A4301D120F0F6
:1006F000010010BD2DE9F04D92469B4611B1B1FAB3
:1007000081F202E0B0FA80F220329046FFF77BFFE0
:1007100004460F4640EA0A0041EA0B0153465A4696
:10072000084313D0114653EA010019D0C8F1400222
:100730005046FFF777FF05460E465046594642465B
:10074000FFF761FF084305D0012004E02046394649
:10075000BDE8F08D0020054346EAE0762C433743A0
:100760000A986305E40AA0EB08000022FD0A44EAA7
:1007700047540A3002D500200146E9E70105101967
:100780006941DDE9084500196941BDE8F04DA2E77E
:10079000C1F30A52C1F3130140F2FF3341F4801157
:1007A0009A4202DA00200146704740F233439A42EF
:1007B000A2F2334202DC5242FFF734BFFFF723BFFD
:1007C00030B5041E71F1000404DB4FF000444042D8
:1007D00064EB0101141E73F1000405DB1C464FF0AD
:1007E0000043524263EB0403994208BF904230BD7C
:1007F000064C074D06E0E06840F0010394E807006E
:1008000098471034AC42F6D3FFF7C2FCC83B00084F
:10081000E83B0008FEE70000014800F06BB800006C
:10082000D803002001681823CAB2103AB2FBF3F2D1
:10083000054B6FF30901032A9B5CC36500D9091DB1
:100840008165084670470000A83B000810B50146C6
:1008500000208B698A6A4FF0C07453B1B3F5005F12
:1008600015D072B1012A0CD0022A0AD0032A09D16C
:1008700004E01AB1012A06D0022A03D1C96AC901CB
:1008800000D5012010BDC96AA142FAD010BD002ACE
:10089000F7D0012AF2D0022AF3D0032AF3D010BDF8
:1008A00030B50468256825F48025256004686360F8
:1008B0008368402B036803D099600068C26030BD34
:1008C0009A600068C16030BD704772B6FEE790F86C
:1008D0003510022903D08021416501207047052190
:1008E00080F835100068016821F0010101600020E6
:1008F000704700002DE9F84304464FF00009CDF899
:10090000009063484FF41651A56D0068B0FBF1F7F5
:100910002E6894F85C10082000FA01F131420FD0E3
:1009200021680A6852070BD50A6822F004020A609F
:1009300094F85C108840A860606D40F0010060652C
:1009400094F85C104FF0010808FA01F0304208D02A
:1009500021684969090604D5A860606D40F002006D
:10096000606594F85C1004208840304208D021680B
:100970000968890704D5A860606D40F004006065CF
:1009800094F85C1010208840304218D02168096823
:10099000090714D5A86020680168490304D50068D8
:1009A000000308D5A16C07E00168C90503D40168FC
:1009B00021F008010160216C09B12046884794F8B4
:1009C0005C1020208840304231D021680968C90677
:1009D0002DD5A86094F8350005282068016806D058
:1009E000490347D5006800031DD4616C1CE021F069
:1009F000160101602068416921F080014161206C8D
:100A000008B9A06C20B12068016821F008010160DC
:100A100094F85C103F208840A86084F8349084F8F3
:100A20003580216D1FE0E16B09B120468847606D7C
:100A300000282BD0606DC00714D0052084F8350045
:100A40002068016821F0010101600098401C0090BD
:100A5000B84203D820680068C007F6D184F8349003
:100A600084F83580E16C002910D001B02046BDE843
:100A7000F04308470168C905D5D4016821F0100189
:100A8000016084F8349084F83580CCE7BDE8F883C1
:100A9000D00000202DE9F041044600F097F9064609
:100AA0005CB1002584F83450022084F835002068B9
:100AB000016821F0010101600DE00120BDE8F08135
:100AC00000F084F9801B052805D9202060650320EB
:100AD00084F83500F2E720680068C007F0D122688A
:100AE000116820480140D4E901031843D4E90336D2
:100AF0003343184363691843A3691843E3691843F0
:100B0000236A18430843616A042903D1D4E90B130B
:100B100019430843106020684069666A20F00701A5
:100B200030460E43012704280CD1A06A0643E06A30
:100B300040B12046FFF78AFE20B14020606584F86E
:100B40003570BAE7206846612046FFF76BFE94F8DF
:100B50005C203F2191408160656584F835700020FC
:100B6000ACE700003F8010F02DE9F0410446866DAF
:100B700090F83400002501280DD0012084F83400BD
:100B800094F835700020012F07D084F83400022536
:100B90002846BDE8F0810220FBE7022784F8357083
:100BA00060652046FFF77CFE94F85C103F2088408B
:100BB000B0602068016841F016010160206C20B12E
:100BC0002068016841F0080101602068016841F077
:100BD00001010160DCE7000070B5044600F0F6F8A2
:100BE0000546601C02D004480078044400F0EEF88A
:100BF000401BA042FAD370BDC40000202DE9F84F7D
:100C000000224FF0010803254FF00F0E0B6808FA81
:100C100002F42340A3426ED14E68012E05D0022E6D
:100C200003D0112E01D0122E12D186684FEA420C49
:100C300005FA0CF7BE43CF6807FA0CF73743876015
:100C40004668A6430C79C4F30014944034434460CE
:100C5000C668570005FA07FC8C6826EA0C06BC40FB
:100C60003443C4604C68022C01D0122C13D1D40838
:100C700000EB8404A346D4F8209054074FEAD46ACA
:100C80000EFA0AF629EA06090E6906FA0AF646EA93
:100C90000906CBF8206006680C7926EA0C0604F0F9
:100CA0000304BC40344304604C68E40065D5364C12
:100CB000266846F480462660246822F0030604F481
:100CC00080440094314C3444A446D4F80848960734
:100CD000370F0EFA07F6B4432D4EB04201D100266D
:100CE00024E02C4EB04201D101261FE02A4EB04232
:100CF00002D102261AE040E0284EB04201D103267C
:100D000014E0274EB04201D104260FE0254EB04238
:100D100001D105260AE0244EB04201D1062605E0A5
:100D2000224EB04201D1072600E00826BE402643ED
:100D3000CCF808681E4E34684F689C43FF0300D50A
:100D40001C4334601A4C241D26684F689E43BF0321
:100D500000D51E432660164E083634684F689C4303
:100D6000FF0200D51C433460114E0C3634684F68C6
:100D70009C43BF0200D51C433460521C102AFFF470
:100D800045AFBDE8F88F0000443802400030014014
:100D9000000002400004024000080240000C024033
:100DA000001002400014024000180240001C0240E3
:100DB000003C0140426931EA020200D1090481612C
:100DC00070470AB1816170470904FBE701488068F8
:100DD00070470000C4000020024881680278114476
:100DE00081607047C40000200B4810B5016841F4D1
:100DF00000710160016841F480610160016841F4A3
:100E000080710160032000F06FF8002000F006F808
:100E100000F024F8002010BD003C024070B50D4DDC
:100E200004464FF47A712878B1FBF0F00A4909685A
:100E3000B1FBF0F000F002FB48B9102C07D2002201
:100E40002146501E00F030F800206C6070BD01207B
:100E500070BD0000C4000020D00000200A4808B582
:100E6000016841F480410160006800F48040009016
:100E70000548001F016841F080510160006800F0E2
:100E80008050009008BD000044380240002809DB73
:100E900000F01F02012191404009800000F1E02094
:100EA000C0F8001170470000F0B40E4B1B680C46F0
:100EB000C3F30223C3F10705042D00D90425191D2E
:100EC000072901D2002300E0DB1E012606FA05F106
:100ED000491E214099409E40761E16403143F0BC89
:100EE00001F0F4BC0CED00E0064900F007020868D0
:100EF0004FF6FF03184040EA0220034A10430860FF
:100F0000704700000CED00E00000FA052DE9F04705
:100F10000E46050065D0DFF81481D8F80000F7B25E
:100F200000F00F00B04207D288F80070D8F8000037
:100F300000F00F00B04254D128683D4C810712D513
:100F4000400703D5206840F4E0502060287800076F
:100F500003D5206840F4604020602068A96820F034
:100F6000F000084320602878C0072DD03049686819
:100F70000839012812D0022813D0032811D009689B
:100F8000890700292DDA216821F00301014321603E
:100F9000FFF71CFF814641F2883A0EE00968890399
:100FA000EFE709688901ECE7FFF710FFA0EB090103
:100FB000514502D90320BDE8F0872068696800F038
:100FC0000C00B0EB810FEFD1D8F80010404601F0D3
:100FD0000F01B14207D90770006800F00F00B0425E
:100FE00001D00120E7E72878400705D52068E968A7
:100FF00020F4E050084320602878000706D52068D8
:10100000296920F4604040EAC100206000F038F80F
:101010002168084AC1F30311515CC84006490860C1
:1010200006480068FFF7FAFE0020C4E7003C0240D3
:1010300008380240B03B0008D0000020C800002063
:101040000448054900680968044AC1F38221515CDB
:10105000C8407047D000002008380240C03B00085C
:101060000448054900680968044AC1F34231515CEB
:10107000C8407047D000002008380240C03B00083C
:10108000154810B5006810F00C02144813D0411038
:10109000042A0FD0082A0ED10F4C241F226823687F
:1010A00002F03F025B0207D52068C0F38810A0FB66
:1010B000010106E0084610BD2168C1F38811A1FBBB
:1010C00000010023FFF77EF82168C1F30141491CAC
:1010D0004900B0FBF1F010BD083802400024F400D4
:1010E0002DE9F84F04006ED02078DFF83C93C0075C
:1010F000A9F104054AD009F104000168C1F3810196
:10110000012908D00068C0F3810002280AD1D9F86B
:101110000000400206D52868800337D560680028A3
:10112000E1D033E06068B0F5803F10D0B0F5A02F7B
:10113000286810D020F480302860286820F48020AF
:1011400028606068A8B1FFF741FE06460DE02868F8
:1011500040F48030F4E740F480202860F7E700BFD7
:10116000FFF734FE801B642873D828688003F7D506
:101170000CE0FFF72BFE064605E000BFFFF726FE5A
:10118000801B6428F0D828688003F7D42078DFF823
:101190009C8280074FF0000A3ED5A348001D0168DD
:1011A00011F00C0F08D00068C0F3810002280BD1A9
:1011B000D9F80000400207D42868800716D5E068F7
:1011C000012800D112E02BE1E068B8B10120C8F895
:1011D0000000FFF7FBFD064605E000BFFFF7F6FD48
:1011E000801B0228C0D828688007F7D528682169A5
:1011F00020F0F80040EAC10028600DE0C8F800A027
:10120000FFF7E4FD064604E0FFF7E0FD801B02283F
:101210001FD828688007F7D42078000722D5824E8F
:1012200083486169703671B101210160FFF7CEFD1D
:10123000074604E0FFF7CAFDC01B022809D8306842
:101240008007F7D50EE0C0F800A0FFF7BFFD074606
:1012500005E082E0FFF7BAFDC01B02287DD83068A8
:101260008007F7D42078400768D5DFF8BCB10027A5
:101270000BF13C0BDBF80000C0000BD4DBF80010D6
:1012800041F08051CBF80010DBF80000012700F09E
:1012900080500090674E3068C00510D4306840F42C
:1012A00080703060FFF792FD009005E0FFF78EFD43
:1012B0000099401A022850D83068C005F6D55A4E19
:1012C000A0686C3601280FD00528306810D020F0B7
:1012D00001003060306820F004003060A068B8B1D0
:1012E000FFF774FD00900FE0306840F00100F4E774
:1012F00040F004003060F7E7FFF768FD0099411AFD
:1013000041F28830814266D830688007F4D50EE01B
:10131000FFF75CFD009007E0FFF758FD0099411AC8
:1013200041F28830814256D830688007F4D42FB11A
:10133000DBF8001021F08051CBF80010A069C8B391
:101340003949091D0968C1F3810102294AD00228DF
:10135000504607D0C8F8600000E03CE0FFF736FDDB
:1013600004463BE04746C8F86000FFF72FFD0646FD
:1013700005E000BFFFF72AFD801B02282BD8286854
:101380008001F7D4D4E907010843A16A2A4A490831
:1013900002EB0141626A41EA8211084394F82C1081
:1013A00040EA0161C9F8001001203866FFF70EFD20
:1013B000044606E036E000BFFFF708FD001B0228E8
:1013C00009D828688001F7D52CE000BFFFF7FEFCA4
:1013D000001B022802D90320BDE8F88F286880018D
:1013E000F4D41FE00128F7D0D9F80000E26900F436
:1013F0008001914214D1226A00F03F0191420FD145
:1014000047F6C071626A0140914209D1A26A00F4B4
:101410004031914204D1E16A00F07060884201D00D
:101420000120D9E70020D7E70438024000004742F6
:10143000800E4742007000400000FFFF10B5401EC4
:10144000B0F1807F01D3012010BD4FF0E024606136
:101450000F21601701F03AFA0020A06107202061F7
:10146000002010BD7047704770B590F83C20012AED
:1014700032D0012480F83C40022280F83D200368ED
:101480005A689D6822F070060A6832435A60134B0E
:1014900002689A4214D0B2F1804F11D0104B9A4298
:1014A0000ED0104B9A420BD00F4B9A4208D00F4BE4
:1014B0009A4205D00E4B9A4202D00E4B9A4204D16A
:1014C000496825F080031943916080F83D40002170
:1014D00080F83C10084670BD022070BD000001403D
:1014E0000004004000080040000C004000040140DF
:1014F000004001400018004010B5040003D094F8EB
:101500003D0010B107E0012010BD002084F83C0030
:10151000204600F00DF8022084F83D00211D2068CF
:1015200000F0AAFE012084F83D00002010BD00005C
:1015300008B500680B49884212D10B48016841F098
:10154000010101600068002200F0010000901146D6
:101550001920FFF7A9FCBDE808401920FFF796BC49
:1015600008BD000000000140443802400168CA681C
:1015700042F00102CA600068816801F00701062993
:1015800003D0016841F0010101600020704770B58F
:10159000044690F83C00012817D0012584F83C50FF
:1015A000022084F83D002068826822F0770222F44D
:1015B0007F4282600868502830D00DDC20284DD052
:1015C00005DC98B310283BD148E0022070BD3028DC
:1015D00044D0402834D139E0602828D0702806D083
:1015E000B0F5805F2CD0B0F5005F29D10AE0CB6860
:1015F000D1E90121206800F0B0FE2068816841F047
:10160000770109E0CB68D1E90121206800F0A5FE4F
:101610002068816841F48041816011E0CA684968AE
:10162000206800F06FFF5021206807E016E0CA68CC
:101630004968206800F077FF6021206800F097FE7D
:1016400084F83D50002084F83C0070BDCA684968A9
:10165000206800F057FF40212068EFE7226801462C
:101660001046EBE72DE9F0410D46040003D094F855
:101670003D0018B108E00120BDE8F081002084F8A9
:101680003C00204600F03AF8022084F83D00206833
:10169000816844F2070291438160211D206800F0B7
:1016A000EBFD226890689169166A2B68AF69034365
:1016B00040F20330814341EA0721A868EF690843FB
:1016C0004FF6FC418843E96840EA07200143286956
:1016D0002F6A000140EA0730084369686D6926F007
:1016E000AA0646EA0515294393602268906120689E
:1016F0000162012084F83D000020BDE710B586B0EE
:10170000044614216846FEF795FD2068B0F1804F2D
:101710001FD111480021026842F0010202600068F6
:1017200000F0010005900C481038026842F00102F8
:101730000260006800F00100059003200090022084
:10174000CDE901010120CDE9031069460348FFF707
:1017500055FA06B010BD00004038024000000240BB
:1017600010B50446006891B1042904D0012200217B
:1017700000F0E6FD206801225FF0040100F0E0FDCA
:101780002068016841F001010160002010BD0122C4
:101790000021F3E7704770B50446006801694FF017
:1017A0000005C943890715D4C168C943890711D405
:1017B000E91E0161012020772068806980072046AA
:1017C00002D0FFF7E7FF04E000F0C0F8204600F089
:1017D00055F9257720680169C943490717D4C168BD
:1017E000C943490713D46FF0040101610220207737
:1017F0002068806910F4407F204602D0FFF7CAFFBE
:1018000004E000F0A3F8204600F038F925772068BE
:101810000169C943090716D4C168C943090712D42D
:101820006FF008010161042020772068C0698007FB
:10183000204602D0FFF7AEFF04E000F087F8204614
:1018400000F01CF9257720680169C943C90617D43F
:10185000C168C943C90613D46FF0100101610820A3
:1018600020772068C06910F4407F204602D0FFF73F
:1018700091FF04E000F06AF8204600F0FFF82577B9
:1018800020680169C943C90708D1C168C943C907AC
:1018900004D1891E0161204600F014F92068016915
:1018A000C943090609D4C168C943090605D46FF0C4
:1018B000800101612046FFF7D5FD20680169C94319
:1018C000490609D4C168C943490605D46FF04001EF
:1018D0000161204600F030F920680169C94389069A
:1018E0000BD4C168C943890607D46FF02001016198
:1018F0002046BDE87040FFF7B6BD70BD10B586B09C
:10190000044614216846FEF795FC0D49206888427C
:1019100014D10C480021026842F001020260006804
:1019200000F001000590C02000900220CDE90101E7
:10193000CDE9031069460448FFF760F906B010BD11
:10194000000400403038024000000240704770B58B
:10195000044690F83C000D4601280DD0012684F87D
:101960003C60022084F83D0042B1042A18D0082AC5
:101970002AD00C2A4DD139E0022070BD206800F039
:10198000FFFC2068816941F008018161206881695C
:1019900021F004018161206881692A69114311E005
:1019A000206800F01DFD2068816941F400618161BB
:1019B0002068816921F480618161206881692A69D8
:1019C00041EA0221816124E0206800F03FFD2068A7
:1019D000C16941F00801C1612068C16921F00401B9
:1019E000C1612068C1692A69114311E0206800F0D3
:1019F00061FD2068C16941F40061C1612068C1696D
:101A000021F48061C1612068C1692A6941EA02212B
:101A1000C16184F83D60002084F83C0070BD10B5C1
:101A2000040003D094F83D0010B107E0012010BD80
:101A3000002084F83C00204600F00CF8022084F8D6
:101A40003D00211D206800F017FC012084F83D00B6
:101A5000002010BD08B500680649884208D1064834
:101A6000016841F002010160006800F0020000908E
:101A700008BD0000000400404038024070470000EC
:101A800010B504460068012200F05AFC0B4920689A
:101A9000884202D00A49884203D1416C41F4004196
:101AA00041642068816801F00701062903D00168BC
:101AB00041F001010160002010BD00000000014064
:101AC0000004014010B5184900680968884212D125
:101AD000164C94ED050AB5EEC00AF1EE10FA0BD1E2
:101AE000201DD4ED080A94ED040A90EC031A00F0CE
:101AF000FFFA84ED070A10BD10EE100A0C49DFED65
:101B00000D0A884202D1C4ED070A10BD10EE100A7A
:101B1000B0F17E5FF9D1C4ED070A002020800249B0
:101B200040310968486210BDD802002084000020BE
:101B30000000DE42000000007047704770B5026888
:101B400004461068D168536910F00F0F52D003F0AB
:101B5000010501F490762E435FD0C20705D0CA0577
:101B600003D5E26B42F00102E263420705D5DA07D2
:101B700003D0E26B42F00202E263820705D5DA0786
:101B800003D0E26B42F00402E263020707D501F0E2
:101B900020022A4303D0E26B42F00802E263E26BC8
:101BA000002A33D0800604D5880602D5204600F0EE
:101BB0003AFD20684069E16BC0F38010090700D44A
:101BC00028B3204600F018FD2068416949061AD55F
:101BD000416921F040014161606BA0B11B49016581
:101BE000606BFEF774FE002810D0606B016DBDE8DD
:101BF00070400847830610D58B060ED52046BDE8F9
:101C0000704000F010BD2046FFF797FF70BD2046E2
:101C1000FFF793FF0020E06370BD030606D50B06B7
:101C200004D52046BDE8704000F0DCBD4006F3D589
:101C30004806F1D5D168204621F04001D16020212D
:101C400084F8391000F068F970BD000059250008CB
:101C500070B5040004D094F83900002510B106E0F6
:101C6000012070BD84F83850204600F023F824206D
:101C700084F839002068C16821F40051C160204611
:101C800000F01CFD2068016921F490410161206889
:101C9000416921F02A0141612068C16841F4005185
:101CA000C160E563202084F8390084F83A00002000
:101CB00070BD000070B586B0064614216846FEF778
:101CC000B9FA24493068884241D123480025016887
:101CD00041F400210160006800F4002005901E48D6
:101CE0001038016841F0040101600068694600F0A5
:101CF000040005904FF44060009002200190012004
:101D0000029003200390082004901448FEF776FF09
:101D1000144C134820604005C4E901054014C4E98F
:101D2000035080106561C4E9065025622046656253
:101D3000FEF7B0FE08B1FEF7C8FD7463002211463D
:101D40003420A663FFF7B0F83420FFF79FF806B001
:101D500070BD0000004C00404038024000080240C6
:101D600040600240D8030020F8B5044690F83A00DD
:101D700020283CD1C1B3BAB394F83800012836D03A
:101D8000012084F83800A162A2850025E5632220A5
:101D900084F83A00636B1748D863636B164818647D
:101DA000636B1648D864606B134605650846666B1E
:101DB000216802463046091DFEF7D6FE20680168FC
:101DC0004168009184F83850C16841F48071C16065
:101DD0002068416941F0010141612068416941F099
:101DE000400141610020F8BDFFE70120FBE7022030
:101DF000F9E70000B3250008EF2500086925000871
:101E000010B5134900680968884220D1114C4FF47D
:101E100000512046FEF7CEFF4FF400412046FEF76A
:101E2000C9FF0B490020E03901F09AFB0A4C084930
:101E3000052084ED060AE03901F092FB044984EDA7
:101E4000050AE039192001F08BFB84ED040A10BD6E
:101E500098030020000C02408400002070472DE908
:101E6000F843044690F839001F4616460D462028D0
:101E700050D1B5B1AEB194F8380001284AD0012054
:101E800084F838004FF00008C4F83C80212084F822
:101E90003900FEF79BFFA6848146E68484F83880EB
:101EA00026E00120BDE8F883E08C401EE084A068B5
:101EB0004B46B0F5805F4FF000024FF080012046A6
:101EC000009703D000F0BFFCE8B90DE000F0BBFCC8
:101ED000C8B928882168C0F308004860206908B1A3
:101EE0006D1C05E0AD1C03E0216815F8010B48608E
:101EF000E08C0028D8D14B46002240212046009794
:101F000000F0A1FC08B10320CCE7202084F83900C0
:101F10000020C7E70220C5E77047FEE770B586B02E
:101F200014216846FEF786F91A480025016841F039
:101F300080010160016801F080010591016841F0B4
:101F400001010160016801F001010591016841F0A2
:101F500008010160016801F008010591016841F084
:101F60000401016000680C4E00F004004FF470445E
:101F70000590002221463046FEF723FF0121CDE9DE
:101F80000041CDE9021569463046FEF737FE06B03E
:101F900070BD000030380240000C024010B586B021
:101FA0000024174800940194029403940494134964
:101FB000059401604AF21041C0E901141321C0E9FF
:101FC000031444618461FFF797FA08B172B6FEE723
:101FD0004FF48050009069460948FFF7D8FA08B1DD
:101FE00072B6FEE7049404A905480594FFF73CFA8D
:101FF000002801D072B6FEE706B010BD0000014017
:10200000D802002010B58CB024216846FEF712F9E2
:102010000024154809944FF080410A94C0E9001447
:10202000611EC0E90241046184610320CDE900041E
:102030000120CDE902040494CDE9054007946946E6
:1020400009480894FFF70EFB08B172B6FEE7099441
:1020500009A905480A94FFF707FA002801D072B6CB
:10206000FEE70CB010BD00001803002010B58AB0C8
:10207000002407941C2168460894FEF7DBF81A48F0
:10208000184901600421C0E9011440F2E731C0E9B8
:1020900003148461FFF7C3FC08B172B6FEE707942E
:1020A00007A911480894FFF7DFF908B172B6FEE7F7
:1020B0006020CDE900040294002269460A48049495
:1020C000FFF745FC08B172B6FEE7042269460648F0
:1020D000FFF73DFC08B172B6FEE70348FFF70EFCC0
:1020E0000AB010BD0004004058030020FEE7FEE7E0
:1020F00070EE600A1D48B0EE003A1D4BD0ED0D2A7F
:10210000B0EE600A1B4A02EEC30A90ED0E3A30EEC2
:10211000030A20EE023A90ED0F0A83EE002A21EE28
:10212000800A70EEA21A30EEE23A60EE211A90EDCB
:102130000B0A01EE030AB6EE001A01EE810A32EE36
:10214000000A10EE101A994202DD9FED0B0A05E01D
:1021500010EE101A914201D99FED080A80ED0B0A8A
:10216000C0ED0E2AC0ED0D0A70470000840000206B
:1021700000C0794400C079C400C0794400C079C46B
:10218000BDEEC00A0948002310EE101A416208484B
:102190000029026803DD516300688363704753635D
:1021A000FADA0068C1F10001816370478400002001
:1021B0005803002070477047FEF70EBE30B593B04D
:1021C00030216846FEF736F814210CA8FEF732F8E5
:1021D0001D480025016841F080510160006800F051
:1021E000805011901948016841F4804101600068F5
:1021F000022400F48040119001200090000401901E
:102200008001CDE90640082008904FF4A870CDE980
:10221000090404200B906846FEF762FF08B172B60D
:10222000FEE70CA90F2081E831004FF4A0500F9079
:10223000109005210CA8FEF769FE002801D072B6A7
:10224000FEE713B030BD000040380240007000408F
:102250000548016841F47001016003494FF00060D6
:10226000803908607047000088ED00E00148FFF702
:1022700092BA0000D8020020F0B50268254C264D25
:10228000264E274F274B4FF0804CA04209D0604587
:1022900007D0A84205D0B04203D0B84201D098423E
:1022A00004D122F0700E4A6842EA0E02A0421BD00E
:1022B000604519D0A84217D0B04215D0B84213D00B
:1022C000984211D0184DA8420ED0184DA8420BD0FC
:1022D000174DA84208D0174DA84205D0164DA84268
:1022E00002D0164DA84203D122F44075CA682A4391
:1022F0004D6922F080022A4302608A68C2620A683D
:102300008262A04201D0984201D109690163012192
:102310004161F0BD000001400004004000080040A1
:10232000000C004000040140004001400044014016
:102330000048014000180040001C00400020004000
:1023400010B501F01F030121046A99408C43046217
:10235000016A9A401143016210BD10B5846842EAD7
:10236000032224F47F440A432243826010BD826822
:1023700022F070020A4342F00701816070470000BA
:10238000F0B5026A22F001020262036A42688469BF
:10239000124E24F073050C682C4323F002058B6861
:1023A0002B430D4DA84201D0B04205D123F00807C0
:1023B000CB683B4323F00403A84201D0B04205D1CF
:1023C0004D6922F4407215438A692A434260846150
:1023D000496841630362F0BD000001400004014010
:1023E000F0B5026A22F010020262026A4368846950
:1023F0000D6824F4E64444EA05248D6822F02002A6
:1024000042EA05120F4D104EA84201D0B04206D14B
:10241000CF6822F0800242EA071222F04002A8426E
:1024200001D0B04207D14D6923F4406343EA8503EC
:102430008D6943EA85034360846149688163026270
:10244000F0BD00000000014000040140F0B5026A48
:1024500022F480720262026A4368C46922F4007244
:1024600024F073050C68124E2C438D6842EA052255
:102470000E4DA84201D0B04206D1CF6822F40062CE
:1024800042EA072222F48062A84201D0B04207D17A
:102490004D6923F4405343EA05138D6943EA05135C
:1024A0004360C4614968C1630262F0BD000001403D
:1024B0000004014030B5026A22F480520262046ACC
:1024C0004268C3690D6823F4E64343EA05238D6837
:1024D00024F4005444EA0534084DA84202D0084DC3
:1024E000A84204D14D6922F4804242EA851242603A
:1024F000C36149680164046230BD0000000001400E
:102500000004014010B5036A046A24F00104046267
:10251000846924F0F00444EA021423F00A020A4316
:102520008461026210BD10B5036A23F010030362D8
:102530008369046A23F4704343EA023224F0A0035F
:1025400043EA01118261016210BD00000148FFF7FA
:10255000F5BA00009803002010B5806B0021C185FA
:10256000C184FFF7EAFA10BD70B5846B206840693A
:1025700094F83910C0F3C0100025212904D118B1F6
:10258000E584204600F046F82068406994F83A1047
:10259000C0F38010222904D118B1E585204600F04F
:1025A0002BF8E06B40F01000E0632046FFF7C5FA1F
:1025B00070BD10B50146806B09680968C90513D460
:1025C0000021C1850168CA6822F48072CA6001686E
:1025D0004A6922F001024A6101684A6922F0400218
:1025E0004A61202180F83A10FFF70AFC10BD10B5AF
:1025F000806BFFF733FC10BD0168CA6822F490724B
:10260000CA6001684A6922F001024A61202180F80B
:102610003A1070470168CA6822F0C002CA602021DF
:1026200080F83910704710B590F83A10222901D07F
:10263000022010BD8168B1F5805F11D001690029C9
:1026400001681FD0496801F07F03816A4A1C8262D9
:102650000B70C18D491E0904090CC18518D02BE0EF
:102660000269816A002A0268526805D0D2B20A80E3
:10267000816A491C8162ECE7C2F308020A80816A20
:10268000891CF7E74A68816A4B1C83620A70E0E79D
:102690000168CA6822F02002CA600168CA6822F490
:1026A0008072CA6001684A6922F001024A612021F1
:1026B00080F83A10FFF7A4FB002010BD2DE9F0418F
:1026C000044600680169E26821F440511143016148
:1026D0002169A068E26908436169114308432168E0
:1026E000CA6849F20C639A430243CA602068416990
:1026F000A26921F4407111434161E0691927642501
:102700003226B0F5004F354A354920684FF00008B1
:1027100006D0884201D0904236D1FEF7A1FC35E0C8
:10272000884201D0904202D1FEF79AFC01E0FEF708
:1027300087FC61684A18A0FB070148EB0803FDF716
:1027400041FD0146B0FBF5F00201B1FBF5F06FF081
:102750001803584301EB800006EBC000B0FBF5F016
:1027600000F0F80002EB4002B1FBF5F0584301EB3A
:10277000800006EBC000B0FBF5F000F00700216818
:1027800010448860BDE8F081FEF75AFC61688B0F49
:102790008A00A0FB0701FDF715FD0146B0FBF5F02F
:1027A0006FF01802504301EB800006EB0010B0FB05
:1027B000F5F000F0F002B1FBF5F002EB0012B1FB16
:1027C000F5F06FF01803584301EB800006EB0010A2
:1027D000B0FBF5F000F00F00D1E70000001401405D
:1027E0000010014090F83910212901D002207047D3
:1027F0008168B1F5805F016A0BD04A1C02620268F1
:1028000009785160C18C491E0904090CC1840ED09D
:1028100017E009880268C1F30801516001690029C5
:10282000016A02D0491C0162ECE7891CFBE70168E0
:10283000CA6822F08002CA600068C16841F04001A5
:10284000C160002070472DE9F041984617460E46BA
:102850000446069D1DE0681C1BD02DB1FEF7B6FA9C
:10286000A0EB0800A84214D92068C16821F4D071F7
:10287000C1602068416921F001014161202084F894
:10288000390084F83A00002084F838000320BDE8BD
:10289000F0812068006836EA000004D00020B842C9
:1028A000D9D00020F3E70120F9E7FEE70FB4054B8C
:1028B00010B503A9044A029800F0EAF810BC5DF8CC
:1028C00014FB000069320008D40000200907090E3B
:1028D000002804DB00F1E02080F80014704700F0CD
:1028E0000F0000F1E02080F8141D704702E008C8D6
:1028F000121F08C1002AFAD170477047002001E07A
:1029000001C1121F002AFBD1704700002DE9FF5FB3
:1029100082B00021DDE90430020DDDF840B0034350
:1029200018D044F61050A2F2FF3242431514119809
:1029300001281FD0A5EB0B00401C5FEA000A4FF0F6
:1029400000064E4FDFF83891B046504615D5CAF113
:10295000000413E0119801244AA3012801D16FEA71
:102960000B010298119AC0E90031C0E9024206B099
:10297000BDE8F09FCBF10000DFE704460021404AAC
:10298000491842EB0450CDE9001012E0E00707D0EF
:1029900032463B4640464946FDF7FEFC80468946A6
:1029A00032463B4610461946FDF7F6FC06460F46F2
:1029B0006410002CEAD1DDE90401DDE90023BAF15D
:1029C000000F06DAFDF7E8FC42464B46FDF7E4FC53
:1029D00005E0FDF753FD42464B46FDF74FFD04462B
:1029E0000E460022284BFDF7EBFE03D84FF0FF30D8
:1029F000014607E00022254B20463146FDF725FC25
:102A0000FDF7C6FE102409E0002C0ADB0A22002391
:102A1000FDF7D8FB039B30321A55641E50EA0102C1
:102A2000F2D1641C039AC4F111031444119A012ACF
:102A300003D0012208430DD10AE0084304D000204E
:102A40004FF0110B119072E7A3EB0B056D1E0DE01B
:102A50005B4504DD4FF0000205F1010504E003DAF7
:102A60004FF00002A5F10105002AECD0029811995F
:102A7000C0E90231C0E9004579E7000000001440D8
:102A80000000F03F300000000000F0430000E03F95
:102A90002DE9FF4F95B09A46884606460025EEE19F
:102AA000252877D100242746F94A0121039400E024
:102AB000044316F8013F203B01FA03F01042F7D11E
:102AC00030782A2811D06FF02F033078A0F130022F
:102AD000092A16D8039A44F0020402EB820203EB9F
:102AE00042021044761C0390EFE758F8042B03923F
:102AF000002A03DA504244F40054039044F00204E4
:102B0000761C30782E2816D116F8010F44F00404F4
:102B10002A280DD06FF02F023078A0F13003092B56
:102B200009D807EB870302EB4303C718761CF3E7CA
:102B300058F8047B761C30786C280FD006DC4C28C3
:102B400017D068280DD06A2814D104E0742810D05A
:102B50007A280FD10DE044F400140AE044F4801404
:102B600001E044F440147278824202D104F58014EA
:102B7000761C761C307866280BD013DC582877D06A
:102B800009DC002875D04528F6D04628F4D047281F
:102B90001AD193E118E0632835D0642879D06528EC
:102BA00012D18BE1702873D008DC6728F1D0692836
:102BB0006FD06E280DD06F2806D1ACE073282CD0D2
:102BC000752874D0782853D05246179990476D1CB9
:102BD00054E1C4F30250022809D003280DD0D8F8DC
:102BE000001004280DD00D6008F1040846E1D8F863
:102BF0000010EA17C1E90052F6E7D8F800100D807E
:102C0000F2E70D70F0E718F8041B8DF800100020B3
:102C10008DF80100EB46012003E058F804BB4FF0AB
:102C2000FF3061074FF0000102D40DE009F101010E
:102C30008946B9420FDA8145F8DB1BF809100029F3
:102C4000F4D108E009F1010189468142FADB1BF861
:102C500009100029F6D103985346A0EB0907214635
:102C60003846179A00F080FA284400EB090507E07F
:102C700044E008E10DE01BF8010B5246179990471C
:102C8000B9F10109F7D2534621463846179AF2E0C6
:102C900039E00A21C4F302524FF0000B0091022ADE
:102CA00006D058F8040BC117032A09D00AE023E024
:102CB00008F1070020F00702F2E80201904605E063
:102CC00000B2C117042A01D140B2C117002906DAA7
:102CD0000A460021404261EB02012D2202E022055A
:102CE00004D52B228DF80420012203E0E20701D055
:102CF0002022F7E7914657E00A2100E010214FF02B
:102D0000000B00910BE010214FF0000B44F0040485
:102D10000827009103E008204FF0000B0090C4F357
:102D20000252022A05D058F8040B0021032A08D0C9
:102D300008E008F1070020F00702F2E802019046DF
:102D400003E080B2042A00D1C0B24FF0000922078C
:102D50002AD53278702A07D0DDF800C08CF0100C2C
:102D60005CEA0B0C05D00EE040228DF80420012215
:102D700008E050EA010306D030238DF804308DF8C6
:102D8000052002229146009B83F0080353EA0B03BF
:102D90000AD150EA010201D1620705D530228DF82F
:102DA00004204FF001097F1E3278582A04D039A23E
:102DB0000C920CAA02920BE03BA2F9E75B46009A48
:102DC000FDF700FA0C9B9B5C029A521E0292137054
:102DD00050EA0102F2D1029804A9081A00F1200B6E
:102DE000600702D524F4803400E001275F4502DD4E
:102DF000A7EB0B0000E0002000EB0B010090039814
:102E00004944401A0390E00306D453462146179ADA
:102E1000039800F0A9F90544002706E001A85246EE
:102E2000C05D179990476D1C7F1C4F45F6DBE00392
:102E30000CD553462146179A039800F095F905449E
:102E400004E030205246179990476D1C0099481EA7
:102E500000900029F5DC08E00298029952460078BB
:102E6000491C0291179990476D1CBBF10001ABF111
:102E7000010BF1DC5BE100F065F90544761C30786C
:102E800000287FF40DAE19B02846BDE8F08F000091
:102E90000928010030313233343536373839616230
:102EA00063646566000000003031323334353637F4
:102EB000383941424344454600000000600700D4D1
:102EC000062708F1070020F00700F0E802238046FB
:102ED00003F0004C5FEA0C0001D097A009E0200548
:102EE00001D596A005E0E00701D095A001E0AFF282
:102EF0004C001390307823F0004365280CD006DC9A
:102F0000452809D046281DD047287FD13BE06628B8
:102F100018D067287AD136E00021112F01DB11206B
:102F200000E0781CCDE9000104A90CA8FFF7EEFC35
:102F3000DDE90D010C9A4FF0000B07F10109109229
:102F400000914EE04FF000400097CDE9011004A938
:102F50000CA8FFF7DBFCDDE90D020C9B0F994FF08D
:102F6000000B91461093009211B9791C00EB0109F6
:102F7000B7EB090003D4C0F1FF3B07F10109A9EB4E
:102F80000700019042E0012F00DA01270021112FF4
:102F900001DD112000E03846CDE9000104A90CA8AC
:102FA000FFF7B4FCDDE90D010C9A00914FF0000B26
:102FB000B946109221070FD4009A4A4503DA914688
:102FC00001E0A9F10109B9F1010F05DD109AA9F19C
:102FD0000101515C3029F4D0B84202DA10F1040F3B
:102FE00003DA0121CDE9011010E0002803DC83445D
:102FF000A9EB000102E0411C494500DD8946A0EB38
:103000000B00401C01904FF000400290200705D4B7
:103010000198484502DB4FF0FF30019000208DF809
:103020004B0002980DF14B07B0F1004F25D0022064
:103030000C902B200D90029800280CDA4042029050
:103040002D200D9007E00A210298FDF7C6FA3031D5
:10305000029007F8011D0C99481E0C900029F2DC23
:1030600002980028EFD1791E0D980870307800F092
:10307000200040F0450007F8020D11A8C01BC01D3C
:1030800002901398007800B1012000EB090101982B
:1030900001EBE071029801440398401A401E03902E
:1030A000E00306D453462146179A039800F05CF8D3
:1030B00005441398007818B15246179990476D1C33
:1030C000E00323D553462146179A039800F04CF8A5
:1030D00005441BE0BBF1000F07DB0098584504DDF9
:1030E0001098179910F80B0001E0179930205246FC
:1030F000904701980BF1010B401E05F1010501906D
:1031000004D12E205246179990476D1CB9F1000149
:10311000A9F10109DEDC05E017F8010B5246179909
:1031200090476D1C0299481E02900029F4DC53461A
:103130002146179A03989EE62D0000002B00000000
:10314000200000002DE9F041044600251E461746E8
:10315000880404D405E039462020B0476D1C641E65
:10316000F9D52846BDE8F0812DE9F0410446002557
:103170001E469046C80301D5302700E0202788046A
:1031800004D505E041463846B0476D1C641EF9D5AC
:103190002846BDE8F08100009FED0B1A5FF00002A9
:1031A000F0EE410A00EB820393ED000A01EB82038B
:1031B000521CD3ED001A30EE011A1B2A40EE210AF0
:1031C000F0DB80EE810A7047000000009FED0B1AD3
:1031D0005FF00002F0EE410A00EB820393ED000A7B
:1031E00001EB8203521CD3ED001A30EE011A1B2AA8
:1031F00040EE210AF0DB80EE810A704700000000FB
:103200009FED0B1A5FF00002F0EE410A00EB820323
:1032100093ED000A01EB8203521CD3ED001A30EE4D
:10322000011A1B2A40EE210AF0DB80EE810A70476A
:1032300000000000F0B500252C46002301EB8406B9
:1032400000EB830796ED000AD7ED000A02EB850735
:103250005B1C20EE200A6D1C092B87ED000AEFDBBA
:10326000641C032CE9DBF0BD13B56423012269461D
:103270000248FEF7F4FD00981CBD000098030020F2
:103280002DED088B88B0FDF7AFFDFEF797FFFEF739
:1032900045FE96480024016841F400110160006871
:1032A000224600F40010009021460D20FDF7FCFDA1
:1032B0000D20FDF7EBFDFEF7A5FEFEF7D7FE8D48CE
:1032C0008B4901604FF4E131C0E901140C21C46065
:1032D000C0E904418461C461FEF7BAFC08B172B66A
:1032E000FEE7FEF75BFE8348C038FEF73FF98148F2
:1032F00000218038FEF734FA7E4804218038FEF73A
:103300002FFA7C4800214038FEF7BAFB79480421A7
:103310004038FEF7B5FB77491E22E0397548FEF7C5
:1033200023FD74490020E0390A5C30320A54401C05
:10333000C0B21E28F8D300249FED6F8B9FED70BBA9
:10334000DFF8C4B1641CE4B2142C0BD16F4D00241F
:103350004FF480512846FDF72DFD4FF4804128465B
:10336000FDF728FD634880380068406A5D46ABF889
:103370000000BBF90000FDF7F0F853EC1B2BFDF744
:103380000BF8FDF70EF900EE100A85ED080A95ED31
:10339000060AB5EEC00AF1EE10FA55D195ED040A11
:1033A000D5ED080A30EE600A10EE100AFDF7E6F8D7
:1033B00041EC100B53EC182BB0EE409AF0EE609AF3
:1033C00051EC190BFCF7E2FF9FED511B53EC112B55
:1033D000FDF754F841EC1A0BB0EE498AF0EE698A19
:1033E00051EC190BFDF7DDF800EE100A4A494B4885
:1033F00000F030FA51EC1A0BFDF7D3F800EE100A8A
:103400004749484800F07CFB474A45494248FFF796
:1034100011FF46494648CDE90001464B464A474917
:10342000474800F0CFF846493F48FFF7E9FE85EDF1
:10343000010A42493C48FFF7C9FE85ED020A3E49B0
:103440003948FFF7A9FE17E010EE100A3D498842FF
:1034500014D128490A20E03900F082F8254985ED89
:10346000010AE0390F2000F07BF8224985ED020ABD
:10347000E039142000F074F885ED030AAB46E868E3
:10348000FDF77CF805460E46DBF80800FDF776F8F8
:10349000CDE90001DBF80400FDF770F89BED070AA9
:1034A00081468A4610EE100AFDF768F89BED080A7F
:1034B0000746884610EE100AFDF760F8CDE906567B
:1034C00041EC100BDDE90001CDE904018DE8800736
:1034D00053EC102B1CA0FFF7E9F90A20FDF77CFB49
:1034E0009BED070AFEF74CFE2CE700003038024047
:1034F000004C004098030020000000000000000085
:10350000000000000000D03F84000020000C0240BA
:103510007B14AE47E17A843F1C02002000000020AB
:1035200040020020240000204C02002068000020FF
:103530004C00002030000020B00100204401002099
:10354000D80000200000DE42256C667C256C667C7D
:10355000256C667C256C667C256C660D0A00000077
:103560000A18B2EE041AD378085C303B00EE103A29
:10357000303800EBC001B8EEC00A937801EB0010C0
:1035800003EB8000C0EE010A51780C4B01EB810186
:1035900003EB4101084400EE100A10799FED081A70
:1035A000B8EEC00A303870EE800A00EE100AB8EEAD
:1035B000C00AC0EE011A30EEA10A7047F0FDFFFF0D
:1035C0000000C84230B5DDE9034593ED000A80ED07
:1035D000000A93ED010A80ED010A93ED020A80EDE5
:1035E000020A93ED030A80ED030A93ED050A80EDCC
:1035F000040A93ED030A80ED050A93ED020A80EDBB
:10360000060A93ED010A80ED070A93ED000A80EDAA
:10361000080A93ED010A80ED090A93ED020A80ED94
:103620000A0A93ED030A80ED0B0A93ED040A80ED7C
:103630000C0A93ED050A80ED0D0A93ED040A80ED66
:103640000E0A93ED030A80ED0F0A93ED020A80ED56
:10365000100A93ED010A80ED110A93ED000A80ED46
:10366000120A93ED010A80ED130A93ED020A80ED30
:10367000140A93ED030A80ED150A93ED050A80ED17
:10368000160A93ED030A80ED170A93ED020A80ED06
:10369000180A93ED010A80ED190A93ED000A80EDF6
:1036A0001A0A94ED000A81ED000A94ED010A81EDF9
:1036B000010A94ED020A81ED020A94ED030A81EDFC
:1036C000030A94ED050A81ED040A94ED030A81EDE5
:1036D000050A94ED020A81ED060A94ED010A81EDD6
:1036E000070A94ED000A81ED080A94ED010A81EDC4
:1036F000090A94ED020A81ED0A0A94ED030A81EDAC
:103700000B0A94ED040A81ED0C0A94ED050A81ED93
:103710000D0A94ED040A81ED0E0A94ED030A81ED81
:103720000F0A94ED020A81ED100A94ED010A81ED71
:10373000110A94ED000A81ED120A94ED010A81ED5F
:10374000130A94ED020A81ED140A94ED030A81ED47
:10375000150A94ED050A81ED160A94ED030A81ED30
:10376000170A94ED020A81ED180A94ED010A81ED21
:10377000190A94ED000A81ED1A0A95ED060A82ED08
:10378000000A95ED050A82ED010A95ED040A82ED25
:10379000020A95ED030A82ED030A95ED010A82ED16
:1037A000040A95ED030A82ED050A95ED040A82EDFF
:1037B000060A95ED050A82ED070A95ED060A82EDE7
:1037C000080A95ED050A82ED090A95ED040A82EDD5
:1037D0000A0A95ED030A82ED0B0A95ED020A82EDC5
:1037E0000C0A95ED010A82ED0D0A95ED020A82EDB3
:1037F0000E0A95ED030A82ED0F0A95ED040A82ED9B
:10380000100A95ED050A82ED110A95ED060A82ED82
:10381000120A95ED050A82ED130A95ED040A82ED70
:10382000140A95ED030A82ED150A95ED010A82ED61
:10383000160A95ED030A82ED170A95ED040A82ED4A
:10384000180A95ED050A82ED190A95ED060A82ED32
:103850001A0A30BD90ED002AF7EE001ADFEDA70A34
:10386000B4EEC02AF1EE10FA04DDC1ED001AC1ED8C
:10387000010A18E090ED011AB4EEC01AF1EE10FA48
:1038800021DD71EE421A31EE401A81EE212A81EDDE
:10389000002A90EC021A30EE410A71EEC11A80EE55
:1038A000211A81ED011AC1ED020A00BFC1ED030A20
:1038B000C1ED040AC1ED050AC1ED060AC1ED070A12
:1038C000C1ED080A704790ED021AB4EEC01AF1EE8D
:1038D00010FA1ADDC1ED000A90ED021AD0ED011ABE
:1038E00071EE611A31EE401A81EE212A81ED012A32
:1038F00090ED011AD0ED021A30EE410A71EEC11AB4
:1039000080EE211A81ED021AD0E790ED031AB4EE91
:10391000C01AF1EE10FA1CDDC1ED000AC1ED010A7A
:1039200090ED031AD0ED021A71EE611A31EE401AD1
:1039300081EE212A81ED022A90ED021AD0ED031AC0
:1039400030EE410A71EEC11A80EE211A81ED031AA0
:10395000AEE790ED041AB4EEC01AF1EE10FA1EDDD7
:10396000C1ED000AC1ED010AC1ED020A90ED041A91
:10397000D0ED031A71EE611A31EE401A81EE212A60
:1039800081ED032A90ED031AD0ED041A30EE410ABE
:1039900071EEC11A80EE211A81ED041A8AE790EDCA
:1039A000051AB4EEC01AF1EE10FA20DDC1ED000ADE
:1039B000C1ED010AC1ED020AC1ED030A90ED051A3D
:1039C000D0ED041A71EE611A31EE401A81EE212A0F
:1039D00081ED042A90ED041AD0ED051A30EE410A6B
:1039E00071EEC11A80EE211A81ED051A64E790ED9F
:1039F000061AB4EEC01AF1EE10FA22DDC1ED000A8B
:103A0000C1ED010AC1ED020AC1ED030AC1ED040ACC
:103A100090ED061AD0ED051A71EE611A31EE401ADA
:103A200081EE212A81ED052A90ED051AD0ED061AC6
:103A300030EE410A71EEC11A80EE211A81ED061AAC
:103A40003CE790ED071AB4EEC01AF1EE10FA24DD4F
:103A5000C1ED000AC1ED010AC1ED020AC1ED030A80
:103A6000C1ED040AC1ED050A90ED071AD0ED061A62
:103A700071EE611A31EE401A81EE212A81ED062A9B
:103A800090ED061AD0ED071A30EE410A71EEC11A18
:103A900080EE211A81ED071A12E790ED081AC1EDA8
:103AA000000AC1ED010AB4EEC01AC1ED020AC1ED6F
:103AB000030AF1EE10FAC1ED040AC1ED050AC1EDE9
:103AC000060A16DDD0ED080A90ED071A30EEC11A8D
:103AD00070EEC00AC0EE811AC1ED071AD0ED070AD8
:103AE00090ED081A30EE600A31EE601AC0EE010A5D
:103AF000E6E6C1ED070AC1ED081A704700000000B4
:103B000090ED002ADFED270AF7EE001AB4EEC02A86
:103B1000F1EE10FA04DDC1ED001AC1ED010A18E062
:103B200090ED011AB4EEC01AF1EE10FA14DD71EE48
:103B3000421A31EE401A81EE212A81ED002A90ECE2
:103B4000021A30EE410A71EEC11A80EE211A81ED9F
:103B5000011AC1ED020A704790ED021AC1ED000A88
:103B6000B4EEC01AF1EE10FA16DDD0ED020A90EDB7
:103B7000011A30EEC11A70EEC00AC0EE811AC1ED12
:103B8000011AD0ED010A90ED021A30EE600A31EE12
:103B9000601AC0EE010ADCE7C1ED010AC1ED021AAC
:103BA0007047000000000000000610160006101606
:103BB00000000000000000000102030406070809DD
:103BC0000000000001020304E83B000800000020A0
:103BD000D8000000EC280008C03C0008D8000020F5
:103BE00060070000FC280008000034C30000F0C299
:103BF000000070C20000F0C1000000000000F041B1
:103C0000000070420000F04200003443000020C178
:103C10000000000000002041000080400000A040A3
:103C20000000C0400000E0400000004100001041E2
:103C300000002041000020410000A0410000F041B0
:103C400000002042000048420000704200008C4208
:103C5000EC51B83D0AD7A33D295C8F3D8FC2753D1D
:103C6000CDCC4C3D0AD7233D8FC2F53C000000006F
:103C70000000000000000000000000000000000044
:103C80000000000000000000000000000000000034
:103C90000000000000000000000000000000000024
:103CA00000000000000000000AD7233C01000000D3
:103CB00010000000000000000024F40000000000DC
:040000050800018965
:00000001FF
